{
  "_format": "hh-sol-artifact-1",
  "contractName": "SoftwareRegistry",
  "sourceName": "contracts/SoftwareRegistry.sol",
  "abi": [
    {
      "anonymous": false,
      "inputs": [
        {
          "indexed": true,
          "internalType": "address",
          "name": "_owner",
          "type": "address"
        },
        {
          "indexed": false,
          "internalType": "bytes32",
          "name": "_hash",
          "type": "bytes32"
        },
        {
          "indexed": false,
          "internalType": "string",
          "name": "_description",
          "type": "string"
        },
        {
          "indexed": false,
          "internalType": "uint256",
          "name": "_timestamp",
          "type": "uint256"
        }
      ],
      "name": "NewRegistration",
      "type": "event"
    },
    {
      "inputs": [
        {
          "internalType": "bytes32",
          "name": "combinatedFilesHash",
          "type": "bytes32"
        },
        {
          "internalType": "string",
          "name": "description",
          "type": "string"
        },
        {
          "internalType": "string",
          "name": "authorName",
          "type": "string"
        },
        {
          "internalType": "string",
          "name": "authorEmail",
          "type": "string"
        }
      ],
      "name": "createRecord",
      "outputs": [],
      "stateMutability": "nonpayable",
      "type": "function"
    },
    {
      "inputs": [
        {
          "internalType": "uint256",
          "name": "n",
          "type": "uint256"
        }
      ],
      "name": "getLastNRecords",
      "outputs": [
        {
          "components": [
            {
              "internalType": "address",
              "name": "owner",
              "type": "address"
            },
            {
              "internalType": "bytes32",
              "name": "sha256Hash",
              "type": "bytes32"
            },
            {
              "internalType": "string",
              "name": "description",
              "type": "string"
            },
            {
              "internalType": "string",
              "name": "authorName",
              "type": "string"
            },
            {
              "internalType": "string",
              "name": "authorEmail",
              "type": "string"
            },
            {
              "internalType": "uint256",
              "name": "blockTimestamp",
              "type": "uint256"
            }
          ],
          "internalType": "struct SoftwareRegistry.Record[]",
          "name": "",
          "type": "tuple[]"
        }
      ],
      "stateMutability": "view",
      "type": "function"
    },
    {
      "inputs": [
        {
          "internalType": "bytes32",
          "name": "sha256Hash",
          "type": "bytes32"
        }
      ],
      "name": "getRecordByHash",
      "outputs": [
        {
          "components": [
            {
              "internalType": "address",
              "name": "owner",
              "type": "address"
            },
            {
              "internalType": "bytes32",
              "name": "sha256Hash",
              "type": "bytes32"
            },
            {
              "internalType": "string",
              "name": "description",
              "type": "string"
            },
            {
              "internalType": "string",
              "name": "authorName",
              "type": "string"
            },
            {
              "internalType": "string",
              "name": "authorEmail",
              "type": "string"
            },
            {
              "internalType": "uint256",
              "name": "blockTimestamp",
              "type": "uint256"
            }
          ],
          "internalType": "struct SoftwareRegistry.Record",
          "name": "",
          "type": "tuple"
        }
      ],
      "stateMutability": "view",
      "type": "function"
    },
    {
      "inputs": [
        {
          "internalType": "address",
          "name": "ownerAddress",
          "type": "address"
        }
      ],
      "name": "getRecordsByOwner",
      "outputs": [
        {
          "components": [
            {
              "internalType": "address",
              "name": "owner",
              "type": "address"
            },
            {
              "internalType": "bytes32",
              "name": "sha256Hash",
              "type": "bytes32"
            },
            {
              "internalType": "string",
              "name": "description",
              "type": "string"
            },
            {
              "internalType": "string",
              "name": "authorName",
              "type": "string"
            },
            {
              "internalType": "string",
              "name": "authorEmail",
              "type": "string"
            },
            {
              "internalType": "uint256",
              "name": "blockTimestamp",
              "type": "uint256"
            }
          ],
          "internalType": "struct SoftwareRegistry.Record[]",
          "name": "",
          "type": "tuple[]"
        }
      ],
      "stateMutability": "view",
      "type": "function"
    }
  ],
  "bytecode": "0x608060405234801561001057600080fd5b50611c58806100206000396000f3fe608060405234801561001057600080fd5b506004361061004c5760003560e01c8063111c4d661461005157806330287e921461006d57806353dce5a41461009d578063552d7105146100cd575b600080fd5b61006b60048036038101906100669190611008565b6100fd565b005b610087600480360381019061008291906110c3565b610460565b604051610094919061126f565b60405180910390f35b6100b760048036038101906100b291906112bd565b610724565b6040516100c49190611443565b60405180910390f35b6100e760048036038101906100e29190611491565b610a8d565b6040516100f49190611443565b60405180910390f35b6000801b8403610142576040517f08c379a00000000000000000000000000000000000000000000000000000000081526004016101399061151b565b60405180910390fd5b608c83511115610187576040517f08c379a000000000000000000000000000000000000000000000000000000000815260040161017e90611587565b60405180910390fd5b6032825111156101cc576040517f08c379a00000000000000000000000000000000000000000000000000000000081526004016101c3906115f3565b60405180910390fd5b603281511115610211576040517f08c379a00000000000000000000000000000000000000000000000000000000081526004016102089061165f565b60405180910390fd5b6000600260008681526020019081526020016000205414610267576040517f08c379a000000000000000000000000000000000000000000000000000000000815260040161025e906116cb565b60405180910390fd5b600042905060008080549050905060006040518060c001604052803373ffffffffffffffffffffffffffffffffffffffff168152602001888152602001878152602001868152602001858152602001848152509050600081908060018154018082558091505060019003906000526020600020906006020160009091909190915060008201518160000160006101000a81548173ffffffffffffffffffffffffffffffffffffffff021916908373ffffffffffffffffffffffffffffffffffffffff16021790555060208201518160010155604082015181600201908161034e91906118f7565b50606082015181600301908161036491906118f7565b50608082015181600401908161037a91906118f7565b5060a082015181600501555050600160003373ffffffffffffffffffffffffffffffffffffffff1673ffffffffffffffffffffffffffffffffffffffff1681526020019081526020016000208290806001815401808255809150506001900390600052602060002001600090919091909150558160026000898152602001908152602001600020819055503373ffffffffffffffffffffffffffffffffffffffff167f55ad51022f458ffdcdf72b4cdbff70a90b6b627e41639974d122c5666550b7b288888660405161044f93929190611a20565b60405180910390a250505050505050565b610468610e29565b600060026000848152602001908152602001600020549050600081116104c3576040517f08c379a00000000000000000000000000000000000000000000000000000000081526004016104ba90611ad0565b60405180910390fd5b60006001826104d29190611b1f565b815481106104e3576104e2611b53565b5b90600052602060002090600602016040518060c00160405290816000820160009054906101000a900473ffffffffffffffffffffffffffffffffffffffff1673ffffffffffffffffffffffffffffffffffffffff1673ffffffffffffffffffffffffffffffffffffffff1681526020016001820154815260200160028201805461056c9061171a565b80601f01602080910402602001604051908101604052809291908181526020018280546105989061171a565b80156105e55780601f106105ba576101008083540402835291602001916105e5565b820191906000526020600020905b8154815290600101906020018083116105c857829003601f168201915b505050505081526020016003820180546105fe9061171a565b80601f016020809104026020016040519081016040528092919081815260200182805461062a9061171a565b80156106775780601f1061064c57610100808354040283529160200191610677565b820191906000526020600020905b81548152906001019060200180831161065a57829003601f168201915b505050505081526020016004820180546106909061171a565b80601f01602080910402602001604051908101604052809291908181526020018280546106bc9061171a565b80156107095780601f106106de57610100808354040283529160200191610709565b820191906000526020600020905b8154815290600101906020018083116106ec57829003601f168201915b50505050508152602001600582015481525050915050919050565b606060008211801561073b57506000805490508211155b8015610748575060648211155b610787576040517f08c379a000000000000000000000000000000000000000000000000000000000815260040161077e90611bce565b60405180910390fd5b60008267ffffffffffffffff8111156107a3576107a2610edd565b5b6040519080825280602002602001820160405280156107dc57816020015b6107c9610e29565b8152602001906001900390816107c15790505b5090506000836000805490506107f29190611b1f565b905060005b84811015610a82576000818361080d9190611bee565b8154811061081e5761081d611b53565b5b90600052602060002090600602016040518060c00160405290816000820160009054906101000a900473ffffffffffffffffffffffffffffffffffffffff1673ffffffffffffffffffffffffffffffffffffffff1673ffffffffffffffffffffffffffffffffffffffff168152602001600182015481526020016002820180546108a79061171a565b80601f01602080910402602001604051908101604052809291908181526020018280546108d39061171a565b80156109205780601f106108f557610100808354040283529160200191610920565b820191906000526020600020905b81548152906001019060200180831161090357829003601f168201915b505050505081526020016003820180546109399061171a565b80601f01602080910402602001604051908101604052809291908181526020018280546109659061171a565b80156109b25780601f10610987576101008083540402835291602001916109b2565b820191906000526020600020905b81548152906001019060200180831161099557829003601f168201915b505050505081526020016004820180546109cb9061171a565b80601f01602080910402602001604051908101604052809291908181526020018280546109f79061171a565b8015610a445780601f10610a1957610100808354040283529160200191610a44565b820191906000526020600020905b815481529060010190602001808311610a2757829003601f168201915b50505050508152602001600582015481525050838281518110610a6a57610a69611b53565b5b602002602001018190525080806001019150506107f7565b508192505050919050565b60606000600160008473ffffffffffffffffffffffffffffffffffffffff1673ffffffffffffffffffffffffffffffffffffffff168152602001908152602001600020805480602002602001604051908101604052809291908181526020018280548015610b1a57602002820191906000526020600020905b815481526020019060010190808311610b06575b505050505090506000815167ffffffffffffffff811115610b3e57610b3d610edd565b5b604051908082528060200260200182016040528015610b7757816020015b610b64610e29565b815260200190600190039081610b5c5790505b50905060005b8251811015610e1e576000838281518110610b9b57610b9a611b53565b5b6020026020010151905060008181548110610bb957610bb8611b53565b5b90600052602060002090600602016040518060c00160405290816000820160009054906101000a900473ffffffffffffffffffffffffffffffffffffffff1673ffffffffffffffffffffffffffffffffffffffff1673ffffffffffffffffffffffffffffffffffffffff16815260200160018201548152602001600282018054610c429061171a565b80601f0160208091040260200160405190810160405280929190818152602001828054610c6e9061171a565b8015610cbb5780601f10610c9057610100808354040283529160200191610cbb565b820191906000526020600020905b815481529060010190602001808311610c9e57829003601f168201915b50505050508152602001600382018054610cd49061171a565b80601f0160208091040260200160405190810160405280929190818152602001828054610d009061171a565b8015610d4d5780601f10610d2257610100808354040283529160200191610d4d565b820191906000526020600020905b815481529060010190602001808311610d3057829003601f168201915b50505050508152602001600482018054610d669061171a565b80601f0160208091040260200160405190810160405280929190818152602001828054610d929061171a565b8015610ddf5780601f10610db457610100808354040283529160200191610ddf565b820191906000526020600020905b815481529060010190602001808311610dc257829003601f168201915b50505050508152602001600582015481525050838381518110610e0557610e04611b53565b5b6020026020010181905250508080600101915050610b7d565b508092505050919050565b6040518060c00160405280600073ffffffffffffffffffffffffffffffffffffffff16815260200160008019168152602001606081526020016060815260200160608152602001600081525090565b6000604051905090565b600080fd5b600080fd5b6000819050919050565b610e9f81610e8c565b8114610eaa57600080fd5b50565b600081359050610ebc81610e96565b92915050565b600080fd5b600080fd5b6000601f19601f8301169050919050565b7f4e487b7100000000000000000000000000000000000000000000000000000000600052604160045260246000fd5b610f1582610ecc565b810181811067ffffffffffffffff82111715610f3457610f33610edd565b5b80604052505050565b6000610f47610e78565b9050610f538282610f0c565b919050565b600067ffffffffffffffff821115610f7357610f72610edd565b5b610f7c82610ecc565b9050602081019050919050565b82818337600083830152505050565b6000610fab610fa684610f58565b610f3d565b905082815260208101848484011115610fc757610fc6610ec7565b5b610fd2848285610f89565b509392505050565b600082601f830112610fef57610fee610ec2565b5b8135610fff848260208601610f98565b91505092915050565b6000806000806080858703121561102257611021610e82565b5b600061103087828801610ead565b945050602085013567ffffffffffffffff81111561105157611050610e87565b5b61105d87828801610fda565b935050604085013567ffffffffffffffff81111561107e5761107d610e87565b5b61108a87828801610fda565b925050606085013567ffffffffffffffff8111156110ab576110aa610e87565b5b6110b787828801610fda565b91505092959194509250565b6000602082840312156110d9576110d8610e82565b5b60006110e784828501610ead565b91505092915050565b600073ffffffffffffffffffffffffffffffffffffffff82169050919050565b600061111b826110f0565b9050919050565b61112b81611110565b82525050565b61113a81610e8c565b82525050565b600081519050919050565b600082825260208201905092915050565b60005b8381101561117a57808201518184015260208101905061115f565b60008484015250505050565b600061119182611140565b61119b818561114b565b93506111ab81856020860161115c565b6111b481610ecc565b840191505092915050565b6000819050919050565b6111d2816111bf565b82525050565b600060c0830160008301516111f06000860182611122565b5060208301516112036020860182611131565b506040830151848203604086015261121b8282611186565b915050606083015184820360608601526112358282611186565b9150506080830151848203608086015261124f8282611186565b91505060a083015161126460a08601826111c9565b508091505092915050565b6000602082019050818103600083015261128981846111d8565b905092915050565b61129a816111bf565b81146112a557600080fd5b50565b6000813590506112b781611291565b92915050565b6000602082840312156112d3576112d2610e82565b5b60006112e1848285016112a8565b91505092915050565b600081519050919050565b600082825260208201905092915050565b6000819050602082019050919050565b600060c08301600083015161132e6000860182611122565b5060208301516113416020860182611131565b50604083015184820360408601526113598282611186565b915050606083015184820360608601526113738282611186565b9150506080830151848203608086015261138d8282611186565b91505060a08301516113a260a08601826111c9565b508091505092915050565b60006113b98383611316565b905092915050565b6000602082019050919050565b60006113d9826112ea565b6113e381856112f5565b9350836020820285016113f585611306565b8060005b85811015611431578484038952815161141285826113ad565b945061141d836113c1565b925060208a019950506001810190506113f9565b50829750879550505050505092915050565b6000602082019050818103600083015261145d81846113ce565b905092915050565b61146e81611110565b811461147957600080fd5b50565b60008135905061148b81611465565b92915050565b6000602082840312156114a7576114a6610e82565b5b60006114b58482850161147c565b91505092915050565b600082825260208201905092915050565b7f496e76616c696420534841323536206861736800000000000000000000000000600082015250565b60006115056013836114be565b9150611510826114cf565b602082019050919050565b60006020820190508181036000830152611534816114f8565b9050919050565b7f4465736372697074696f6e2065786365656473206d6178206c656e6774680000600082015250565b6000611571601e836114be565b915061157c8261153b565b602082019050919050565b600060208201905081810360008301526115a081611564565b9050919050565b7f417574686f72206e616d652065786365656473206d6178206c656e6774680000600082015250565b60006115dd601e836114be565b91506115e8826115a7565b602082019050919050565b6000602082019050818103600083015261160c816115d0565b9050919050565b7f417574686f7220656d61696c2065786365656473206d6178206c656e67746800600082015250565b6000611649601f836114be565b915061165482611613565b602082019050919050565b600060208201905081810360008301526116788161163c565b9050919050565b7f4861736820616c72656164792065786973747300000000000000000000000000600082015250565b60006116b56013836114be565b91506116c08261167f565b602082019050919050565b600060208201905081810360008301526116e4816116a8565b9050919050565b7f4e487b7100000000000000000000000000000000000000000000000000000000600052602260045260246000fd5b6000600282049050600182168061173257607f821691505b602082108103611745576117446116eb565b5b50919050565b60008190508160005260206000209050919050565b60006020601f8301049050919050565b600082821b905092915050565b6000600883026117ad7fffffffffffffffffffffffffffffffffffffffffffffffffffffffffffffffff82611770565b6117b78683611770565b95508019841693508086168417925050509392505050565b6000819050919050565b60006117f46117ef6117ea846111bf565b6117cf565b6111bf565b9050919050565b6000819050919050565b61180e836117d9565b61182261181a826117fb565b84845461177d565b825550505050565b600090565b61183761182a565b611842818484611805565b505050565b5b818110156118665761185b60008261182f565b600181019050611848565b5050565b601f8211156118ab5761187c8161174b565b61188584611760565b81016020851015611894578190505b6118a86118a085611760565b830182611847565b50505b505050565b600082821c905092915050565b60006118ce600019846008026118b0565b1980831691505092915050565b60006118e783836118bd565b9150826002028217905092915050565b61190082611140565b67ffffffffffffffff81111561191957611918610edd565b5b611923825461171a565b61192e82828561186a565b600060209050601f831160018114611961576000841561194f578287015190505b61195985826118db565b8655506119c1565b601f19841661196f8661174b565b60005b8281101561199757848901518255600182019150602085019450602081019050611972565b868310156119b457848901516119b0601f8916826118bd565b8355505b6001600288020188555050505b505050505050565b6119d281610e8c565b82525050565b60006119e382611140565b6119ed81856114be565b93506119fd81856020860161115c565b611a0681610ecc565b840191505092915050565b611a1a816111bf565b82525050565b6000606082019050611a3560008301866119c9565b8181036020830152611a4781856119d8565b9050611a566040830184611a11565b949350505050565b7f5265636f7264206e6f7420666f756e6420666f722074686520676976656e206860008201527f6173680000000000000000000000000000000000000000000000000000000000602082015250565b6000611aba6023836114be565b9150611ac582611a5e565b604082019050919050565b60006020820190508181036000830152611ae981611aad565b9050919050565b7f4e487b7100000000000000000000000000000000000000000000000000000000600052601160045260246000fd5b6000611b2a826111bf565b9150611b35836111bf565b9250828203905081811115611b4d57611b4c611af0565b5b92915050565b7f4e487b7100000000000000000000000000000000000000000000000000000000600052603260045260246000fd5b7f496e76616c6964206e756d626572206f66207265636f72647300000000000000600082015250565b6000611bb86019836114be565b9150611bc382611b82565b602082019050919050565b60006020820190508181036000830152611be781611bab565b9050919050565b6000611bf9826111bf565b9150611c04836111bf565b9250828201905080821115611c1c57611c1b611af0565b5b9291505056fea2646970667358221220a5bab8458b484e25148204f2045dba3f35b8e62dc1db2a2e248aadbdaaa1cb7464736f6c63430008180033",
  "linkReferences": {},
  "deployedLinkReferences": {}
}